:100000000C942A000C943C000C943C000C943C0092
:100010000C943C000C943C000C943C000C943C0070
:100020000C943C000C943C000C943C000C943C0060
:100030000C943C000C943C000C943C000C943C0050
:100040000C943C000C943C000C943C000C943C0040
:100050000C943C0011241FBECFE5D8E0DEBFCDBF1D
:1000600020E0A0E6B0E001C01D92A336B207E1F7A0
:100070000E94A0000C940A010C940000FC018081F5
:100080008ABB818187BB828184BB838181BB0895C8
:10009000823469F018F4813431F00895833459F0D2
:1000A000843469F0089589B3FB018083089586B391
:1000B000FB018083089583B3FB018083089580B39F
:1000C000FB0180830895823459F018F4813431F0B3
:1000D0000895833439F0843439F008956BBB089562
:1000E00068BB089565BB089562BB089560E0809188
:1000F00062000E9463001092610008958093620084
:10010000609360000E947600089561E070E00090C6
:10011000600002C0660F771F0A94E2F780916200C8
:100120000E94630081E080936100089580916100E6
:10013000813019F40E94760008950E948500089588
:10014000CF93DF9300D000D000D0CDB7DEB71A82B6
:1001500081E08B831C821D821E82CE0103960E9449
:100160003E0060E081E40E947E0080E090E00E941A
:10017000F00060E081E40E947E00BE016F5F7F4F6F
:1001800083E40E9448008981813039F585E090E060
:100190000E94F2000E949600BE016E5F7F4F8CE2CB
:1001A00091E00E94F6008A81882371F01A8280E033
:1001B00090E00E94F4000E947600BE016E5F7F4FC7
:1001C00084EF91E00E94F600BE016F5F7F4F83E4F1
:1001D0000E94480089818130C9F20E947600CDCF0B
:1001E00082BF089583BF089582BF089522B72F3F2D
:1001F00029F022B730E082179307C1F722B730E029
:100200008217930719F012BE9A95F0CF81E0FB0197
:0802100080830895F894FFCFEC
:00000001FF
